{
  "contractName": "Vote",
  "abi": [
    {
      "anonymous": false,
      "inputs": [
        {
          "indexed": false,
          "internalType": "uint256",
          "name": "topicId",
          "type": "uint256"
        },
        {
          "indexed": false,
          "internalType": "uint8",
          "name": "optionId",
          "type": "uint8"
        },
        {
          "indexed": false,
          "internalType": "bytes32",
          "name": "name",
          "type": "bytes32"
        }
      ],
      "name": "OptionAdded",
      "type": "event"
    },
    {
      "anonymous": false,
      "inputs": [
        {
          "indexed": false,
          "internalType": "uint256",
          "name": "topicId",
          "type": "uint256"
        },
        {
          "indexed": false,
          "internalType": "bytes32",
          "name": "name",
          "type": "bytes32"
        }
      ],
      "name": "TopicAdded",
      "type": "event"
    },
    {
      "anonymous": false,
      "inputs": [
        {
          "indexed": false,
          "internalType": "uint256",
          "name": "topicId",
          "type": "uint256"
        },
        {
          "indexed": false,
          "internalType": "address",
          "name": "voter",
          "type": "address"
        }
      ],
      "name": "Voted",
      "type": "event"
    },
    {
      "inputs": [
        {
          "internalType": "bytes32",
          "name": "_name",
          "type": "bytes32"
        }
      ],
      "name": "addTopic",
      "outputs": [],
      "stateMutability": "nonpayable",
      "type": "function"
    },
    {
      "inputs": [
        {
          "internalType": "uint256",
          "name": "_topicId",
          "type": "uint256"
        },
        {
          "internalType": "bytes32",
          "name": "_name",
          "type": "bytes32"
        }
      ],
      "name": "addOption",
      "outputs": [],
      "stateMutability": "nonpayable",
      "type": "function"
    },
    {
      "inputs": [
        {
          "internalType": "uint256",
          "name": "_topicId",
          "type": "uint256"
        },
        {
          "internalType": "uint8",
          "name": "_optionId",
          "type": "uint8"
        }
      ],
      "name": "vote",
      "outputs": [],
      "stateMutability": "nonpayable",
      "type": "function"
    },
    {
      "inputs": [
        {
          "internalType": "uint256",
          "name": "_topicId",
          "type": "uint256"
        }
      ],
      "name": "getTopic",
      "outputs": [
        {
          "internalType": "bytes32",
          "name": "",
          "type": "bytes32"
        }
      ],
      "stateMutability": "view",
      "type": "function",
      "constant": true
    },
    {
      "inputs": [
        {
          "internalType": "uint256",
          "name": "_topicId",
          "type": "uint256"
        }
      ],
      "name": "getOptionCount",
      "outputs": [
        {
          "internalType": "uint8",
          "name": "",
          "type": "uint8"
        }
      ],
      "stateMutability": "view",
      "type": "function",
      "constant": true
    },
    {
      "inputs": [],
      "name": "getTopicCount",
      "outputs": [
        {
          "internalType": "uint256",
          "name": "",
          "type": "uint256"
        }
      ],
      "stateMutability": "view",
      "type": "function",
      "constant": true
    },
    {
      "inputs": [
        {
          "internalType": "uint256",
          "name": "_topicId",
          "type": "uint256"
        },
        {
          "internalType": "uint8",
          "name": "_optionId",
          "type": "uint8"
        }
      ],
      "name": "getOptions",
      "outputs": [
        {
          "internalType": "bytes32",
          "name": "",
          "type": "bytes32"
        }
      ],
      "stateMutability": "view",
      "type": "function",
      "constant": true
    }
  ],
  "bytecode": "0x608060405234801561001057600080fd5b50610ddc806100206000396000f3fe608060405234801561001057600080fd5b506004361061007d5760003560e01c806386d39cbc1161005b57806386d39cbc146100fe578063943e82161461011a578063cc89698c14610136578063e1adaf58146101545761007d565b80636af39d191461008257806371658896146100b257806372696cb4146100e2575b600080fd5b61009c600480360381019061009791906108be565b610184565b6040516100a99190610917565b60405180910390f35b6100cc60048036038101906100c79190610932565b61034c565b6040516100d99190610917565b60405180910390f35b6100fc60048036038101906100f7919061098b565b6103c2565b005b610118600480360381019061011391906109b8565b610497565b005b610134600480360381019061012f91906108be565b61062a565b005b61013e6107bd565b60405161014b9190610a07565b60405180910390f35b61016e60048036038101906101699190610932565b6107c7565b60405161017b9190610a31565b60405180910390f35b60008060008085815260200190815260200160002060000154036101dd576040517f08c379a00000000000000000000000000000000000000000000000000000000081526004016101d490610aa9565b60405180910390fd5b8160ff1660008085815260200190815260200160002060010160009054906101000a900460ff1660ff161015610248576040517f08c379a000000000000000000000000000000000000000000000000000000000815260040161023f90610b15565b60405180910390fd5b60008060006001548152602001908152602001600020905060005b816004018054905081101561030a57600082600401828154811061028a57610289610b35565b5b90600052602060002090600302016040518060600160405290816000820160009054906101000a900460ff1660ff1660ff1681526020016001820154815260200160028201548152505090508460ff16816000015160ff16036102f65780604001519350505050610346565b50808061030290610b93565b915050610263565b506040517f08c379a000000000000000000000000000000000000000000000000000000000815260040161033d90610b15565b60405180910390fd5b92915050565b60008060008084815260200190815260200160002060000154036103a5576040517f08c379a000000000000000000000000000000000000000000000000000000000815260040161039c90610aa9565b60405180910390fd5b600080838152602001908152602001600020600301549050919050565b6000801b8103610407576040517f08c379a00000000000000000000000000000000000000000000000000000000081526004016103fe90610c27565b60405180910390fd5b6001600081548092919061041a90610b93565b9190505550806000806001548152602001908152602001600020600301819055506001546000806001548152602001908152602001600020600001819055507fab02240a86babdc0c356c3168127f46748185f0293f1e817f4250695a26351586001548260405161048c929190610c47565b60405180910390a150565b600080600084815260200190815260200160002060000154036104ef576040517f08c379a00000000000000000000000000000000000000000000000000000000081526004016104e690610aa9565b60405180910390fd5b6000806000848152602001908152602001600020905080600101600081819054906101000a900460ff168092919061052690610c70565b91906101000a81548160ff021916908360ff16021790555050600060405180606001604052808360010160009054906101000a900460ff1660ff168152602001600081526020018481525090508160040181908060018154018082558091505060019003906000526020600020906003020160009091909190915060008201518160000160006101000a81548160ff021916908360ff160217905550602082015181600101556040820151816002015550507f099270d998a0a28c40755124a2ae09100af9c4f6187f500068e8d4b1e5f248d0848360010160009054906101000a900460ff168560405161061c93929190610c99565b60405180910390a150505050565b600080600084815260200190815260200160002060050160003373ffffffffffffffffffffffffffffffffffffffff1673ffffffffffffffffffffffffffffffffffffffff16815260200190815260200160002054146106bf576040517f08c379a00000000000000000000000000000000000000000000000000000000081526004016106b690610d1c565b60405180910390fd5b600080600084815260200190815260200160002090508060020160008154809291906106ea90610b93565b919050555080600201548160050160003373ffffffffffffffffffffffffffffffffffffffff1673ffffffffffffffffffffffffffffffffffffffff168152602001908152602001600020819055506000816004018360ff168154811061075457610753610b35565b5b9060005260206000209060030201905080600101600081548092919061077990610b93565b91905055507f030b0f8dcd86a031eddb071f91882edeac8173663ba775713b677b42b51be44b84336040516107af929190610d7d565b60405180910390a150505050565b6000600154905090565b6000806000808481526020019081526020016000206000015403610820576040517f08c379a000000000000000000000000000000000000000000000000000000000815260040161081790610aa9565b60405180910390fd5b60008083815260200190815260200160002060010160009054906101000a900460ff169050919050565b600080fd5b6000819050919050565b6108628161084f565b811461086d57600080fd5b50565b60008135905061087f81610859565b92915050565b600060ff82169050919050565b61089b81610885565b81146108a657600080fd5b50565b6000813590506108b881610892565b92915050565b600080604083850312156108d5576108d461084a565b5b60006108e385828601610870565b92505060206108f4858286016108a9565b9150509250929050565b6000819050919050565b610911816108fe565b82525050565b600060208201905061092c6000830184610908565b92915050565b6000602082840312156109485761094761084a565b5b600061095684828501610870565b91505092915050565b610968816108fe565b811461097357600080fd5b50565b6000813590506109858161095f565b92915050565b6000602082840312156109a1576109a061084a565b5b60006109af84828501610976565b91505092915050565b600080604083850312156109cf576109ce61084a565b5b60006109dd85828601610870565b92505060206109ee85828601610976565b9150509250929050565b610a018161084f565b82525050565b6000602082019050610a1c60008301846109f8565b92915050565b610a2b81610885565b82525050565b6000602082019050610a466000830184610a22565b92915050565b600082825260208201905092915050565b7f546f706963204944206e6f7420666f756e640000000000000000000000000000600082015250565b6000610a93601283610a4c565b9150610a9e82610a5d565b602082019050919050565b60006020820190508181036000830152610ac281610a86565b9050919050565b7f4f7074696f6e204944206e6f7420666f756e6400000000000000000000000000600082015250565b6000610aff601383610a4c565b9150610b0a82610ac9565b602082019050919050565b60006020820190508181036000830152610b2e81610af2565b9050919050565b7f4e487b7100000000000000000000000000000000000000000000000000000000600052603260045260246000fd5b7f4e487b7100000000000000000000000000000000000000000000000000000000600052601160045260246000fd5b6000610b9e8261084f565b91507fffffffffffffffffffffffffffffffffffffffffffffffffffffffffffffffff8203610bd057610bcf610b64565b5b600182019050919050565b7f4e616d652063616e277420626520656d70747900000000000000000000000000600082015250565b6000610c11601383610a4c565b9150610c1c82610bdb565b602082019050919050565b60006020820190508181036000830152610c4081610c04565b9050919050565b6000604082019050610c5c60008301856109f8565b610c696020830184610908565b9392505050565b6000610c7b82610885565b915060ff8203610c8e57610c8d610b64565b5b600182019050919050565b6000606082019050610cae60008301866109f8565b610cbb6020830185610a22565b610cc86040830184610908565b949350505050565b7f4164647265737320616c726561647920766f7465640000000000000000000000600082015250565b6000610d06601583610a4c565b9150610d1182610cd0565b602082019050919050565b60006020820190508181036000830152610d3581610cf9565b9050919050565b600073ffffffffffffffffffffffffffffffffffffffff82169050919050565b6000610d6782610d3c565b9050919050565b610d7781610d5c565b82525050565b6000604082019050610d9260008301856109f8565b610d9f6020830184610d6e565b939250505056fea2646970667358221220256cc9f4e04fb044d83bbc642f170cb8d8011dd37bd135ef7d1a8625b2c7afd064736f6c634300080f0033",
  "immutableReferences": {},
  "source": "// SPDX-License-Identifier: MIT\npragma solidity >=0.4.22 <0.9.0;\n\ncontract Vote {\n  struct Option{\n    uint8 index;\n    uint votes;\n    bytes32 name;\n  }\n\n  struct VoteTopic {\n    uint256 index;\n    uint8 optionId;\n    uint256 voterId;\n    bytes32 name;\n    Option[] options;\n    mapping(address => uint256) voters;\n  }\n\n  mapping(uint256 => VoteTopic) private topics;\n  uint256 internal topicId;\n\n  event Voted(uint256 topicId, address voter);\n  event TopicAdded(uint256 topicId, bytes32 name);\n  event OptionAdded(uint256 topicId, uint8 optionId, bytes32 name);\n\n  function addTopic(bytes32 _name) external {\n    require(_name != 0, \"Name can't be empty\");\n    topicId++;\n    topics[topicId].name = _name;\n    topics[topicId].index = topicId;\n    emit TopicAdded(topicId, _name);\n  }\n\n  function addOption(uint256 _topicId, bytes32 _name) external {\n    require(topics[_topicId].index != 0, \"Topic ID not found\");\n    VoteTopic storage _topic = topics[_topicId];\n    _topic.optionId++;\n\n    // create new Option\n    Option memory _option = Option(_topic.optionId, 0, _name);\n    _topic.options.push(_option);\n    emit OptionAdded(_topicId, _topic.optionId, _name);\n  }\n\n  function vote(uint256 _topicId, uint8 _optionId) external {\n    require(topics[_topicId].voters[msg.sender] == 0, \"Address already voted\");\n    VoteTopic storage topic = topics[_topicId];\n    topic.voterId++;\n    topic.voters[msg.sender] = topic.voterId;\n\n    Option storage option = topic.options[_optionId];\n    option.votes++;\n\n    emit Voted(_topicId, msg.sender);\n  }\n\n  function getTopic(uint256 _topicId) external view returns (bytes32) {\n    require(topics[_topicId].index != 0, \"Topic ID not found\");\n    return topics[_topicId].name;\n  }\n\n  function getOptionCount(uint256 _topicId) external view returns (uint8) {\n    require(topics[_topicId].index != 0, \"Topic ID not found\");\n    return topics[_topicId].optionId;\n  }\n\n  function getTopicCount() external view returns (uint256) {\n    return topicId;\n  }\n\n  function getOptions(uint256 _topicId, uint8 _optionId) external view returns (bytes32) {\n    require(topics[_topicId].index != 0, \"Topic ID not found\");\n    require(topics[_topicId].optionId >= _optionId, \"Option ID not found\");\n    VoteTopic storage _topic = topics[topicId];\n    for(uint i=0; i<_topic.options.length; i++){\n      Option memory _option = _topic.options[i];\n      if(_option.index == _optionId) {\n        return (_option.name);\n      }\n    }\n    revert(\"Option ID not found\");\n  }\n}\n",
  "sourcePath": "/Users/chetra_seng/voting-dapp/contracts/Vote.sol",
  "compiler": {
    "name": "solc",
    "version": "0.8.15+commit.e14f2714.Emscripten.clang"
  },
  "schemaVersion": "3.4.8",
  "updatedAt": "2022-10-11T16:36:23.588Z",
  "networkType": "ethereum",
  "devdoc": {
    "kind": "dev",
    "methods": {},
    "version": 1
  },
  "userdoc": {
    "kind": "user",
    "methods": {},
    "version": 1
  }
}